:020000040000FA
:060000000A128A110C280F
:10000800FE00030EF1000A08F2000A128A112A29DA
:100018000A128A110F28F70183010A128A1144294A
:10002800F600831203131F141F083F3980389F00FE
:10003800831603139F121F120C17831203130C133A
:100048007308031D28282928FA28831603139F13E9
:10005800C6280514831603170814C3308312031324
:100068009F05022985148316031788148312031326
:100078001F08C33904389F00022905158316031782
:100088000815831203131F08C33908389F00022973
:100098008515831603178815831203131F08C339A0
:1000A8000C389F0002298516831603170816831239
:1000B80003131F08C33910389F0002290914831637
:1000C80003178816831203131F08C33914389F00B7
:1000D80002298914831603170817831203131F08AC
:1000E800C33918389F00831603130915831603179D
:1000F8008817831203131F08C3391C389F0002296D
:100108000615831603170914831203131F08C3392E
:1001180020389F0002298615831603178914831235
:1001280003131F08C33924389F0002298614831635
:1001380003170915831203131F08C33928389F00B2
:1001480002290616831603178915831203131F083D
:10015800C3392C389F000229061483160317091681
:10016800831203131F08C33930389F0002298616EB
:10017800831603178916831203131F08C3393438EB
:100188009F0002297608F400F5017508003A031962
:10019800CE2802297408003A03192D28013A0319B8
:1001A8003628033A03194128013A03194C28073A1B
:1001B80003195728013A03196228033A03196D28CD
:1001C800013A031977280F3A03198428013A0319C9
:1001D8008F28033A03199A28013A0319A528073AE0
:1001E8000319B028013A0319BB2802297303031D18
:1001F800FE28FF280229831603139F170800831679
:1002080003178801890183160313850183120313D9
:1002180085010330831603138600831203138601B6
:1002280083160313870183120313870183160313AD
:10023800880183120313880183160313890183122B
:10024800031389018B170B17F70108008312031397
:100258000C1F2F2930293D291E0888000C139F30B8
:10026800F0003629F00B352939293A29831203136E
:100278009F1472088A00710E8300FE0E7E0E09001C
:100288000A128A1103210A128A11F30100300A1294
:100298008A1114200A128A11831203139F145329F6
:0602A8000A128A110C2865
:04400E00F22FFF3F4F
:00000001FF
