:020000040000FA
:060000000A128A110C280F
:10000800FE00030EF2000A08F3000A128A115829AA
:100018000A128A110F28F701F801F90183010A125F
:100028008A11AA2983120313A0001F141F083F393D
:1000380080389F00831603139F121F120C17831218
:1000480003130C137408031D2A282B281829831658
:1000580003139F13E228831603130514831603174B
:100068000814C330831203139F0520298316031332
:100078008514831603178814831203131F08C339C2
:1000880004389F00202983160313051583160317C8
:100098000815831203131F08C33908389F00202945
:1000A8008316031385158316031788158312031304
:1000B8001F08C3390C389F0020298316031385169F
:1000C800831603170816831203131F08C339103841
:1000D8009F00202983160313091483160317881613
:1000E800831203131F08C33914389F00202983166D
:1000F80003138914831603170817831203131F08A1
:10010800C33918389F00831603130915831603177C
:100118008817831203131F08C3391C389F0020292E
:100128008316031306158316031709148312031382
:100138001F08C33920389F0020298316031386150A
:10014800831603178914831203131F08C33924382D
:100158009F00202983160313861483160317091595
:10016800831203131F08C33928389F0020298316D8
:1001780003130616831603178915831203131F0822
:10018800C3392C389F0020298316031306148316BD
:1001980003170916831203131F08C33930389F0049
:1001A80020298316031386168316031789168312CC
:1001B80003131F08C33934389F00202983120313FF
:1001C8002008F500F6017608003A0319EC282029E2
:1001D8007508003A03192F28013A03193A28033AF7
:1001E80003194728013A03195428073A03196128C3
:1001F800013A03196E28033A03197B28013A0319B7
:1002080087280F3A03199428013A0319A128033AB9
:100218000319AE28013A0319BB28073A0319C8285D
:10022800013A0319D52820297403031D1C291D2907
:100238002029831603139F170800831603178801C4
:100248008901831603138501831203138501033083
:100258008316031386008312031386018316031380
:1002680087018312031387018316031388018312FE
:100278000313880183160313890183120313890169
:100288008B170B17F9018B170B178C118316031398
:100298008C158516F401F501F60124300A128A112D
:1002A8008C210A128A110800831203130C1F5D297E
:1002B8005E2970291E0888000808F1007108F900F5
:1002C8000C139F30F1006829F10B67296B296C2901
:1002D800831203139F1485298C1D7329742985297A
:1002E8000A128A11BD210A128A1183120313890086
:1002F80008080A128A11CD210A128A1183120313DF
:100308008C1173088A00720E8300FE0E7E0E09009F
:1003180083120313A0008316031387128312031397
:10032800201D972998299E2976088316031394007F
:100338008715A4297408760483160313940087117B
:100348008312031320087504940008000A128A1106
:1003580021210A128A11F40100300A128A1116208A
:100368000A128A11831203139F14B9290A128A11D7
:100378000C280A128A11C6210A128A118312031341
:100388001308080083160313141CCB29CC29C6298B
:0E0398000800F00070088312031393000800A1
:04400E00F22FFF3F4F
:00000001FF
