:020000040000FA
:060000000A128A110C280F
:10000800FE00030EF2000A08F3000A128A113C29C6
:100018000A128A110F28F80183010A128A11862907
:10002800F700831203131F141F083F3980389F00FD
:10003800831603139F121F120C17831203130C133A
:100048007408031D28282928FA28831603139F13E8
:10005800C6280514831603170814C3308312031324
:100068009F05022985148316031788148312031326
:100078001F08C33904389F00022905158316031782
:100088000815831203131F08C33908389F00022973
:100098008515831603178815831203131F08C339A0
:1000A8000C389F0002298516831603170816831239
:1000B80003131F08C33910389F0002290914831637
:1000C80003178816831203131F08C33914389F00B7
:1000D80002298914831603170817831203131F08AC
:1000E800C33918389F00831603130915831603179D
:1000F8008817831203131F08C3391C389F0002296D
:100108000615831603170914831203131F08C3392E
:1001180020389F0002298615831603178914831235
:1001280003131F08C33924389F0002298614831635
:1001380003170915831203131F08C33928389F00B2
:1001480002290616831603178915831203131F083D
:10015800C3392C389F000229061483160317091681
:10016800831203131F08C33930389F0002298616EB
:10017800831603178916831203131F08C3393438EB
:100188009F0002297708F500F6017608003A03195E
:10019800CE2802297508003A03192D28013A0319B7
:1001A8003628033A03194128013A03194C28073A1B
:1001B80003195728013A03196228033A03196D28CD
:1001C800013A031977280F3A03198428013A0319C9
:1001D8008F28033A03199A28013A0319A528073AE0
:1001E8000319B028013A0319BB2802297403031D17
:1001F800FE28FF280229831603139F170800831679
:1002080003178801890183160313850120308500AF
:1002180083120313850103308316031386008312A8
:10022800031386010C30831603138700831203130C
:100238008701831603138801831203138801831629
:10024800031389018312031389018B170B17F80114
:100258008B170B178C11831603138C15F401F501FA
:10026800F60124300A128A1170210A128A11080034
:10027800831203130C1F4129422954291E088800A0
:100288000808F1007108F8000C139F30F1004C29A0
:10029800F10B4B294F295029831203139F14692905
:1002A8008C1D5729582969290A128A1199210A127D
:1002B8008A1183120313890008080A128A11A921D6
:1002C8000A128A11831203138C1173088A00720EA2
:1002D8008300FE0E7E0E0900F700831603138712B3
:1002E800771D772978297C29760894008715802935
:1002F8007408760494008711770875048312031331
:10030800940008000A128A1103210A128A11F401C2
:1003180000300A128A1114200A128A118312031358
:100328009F1495290A128A110C280A128A11A221EF
:100338000A128A1183120313130808008316031381
:10034800141CA729A829A2290800F0007008831204
:06035800031393000800EE
:04400E00F22FFF3F4F
:00000001FF
