:020000040000FA
:060000000A128A110C280F
:10000800FE00030EF1000A08F2000A128A15D62B28
:100018000A128A110F28F801F901FA018312031351
:10002800D601D701D801D901DA01DB01DC01DD01F4
:10003800DE01DF01E001E101E20183010A128A1118
:10004800862B831203132D088039B2003208B700BB
:100058002D08B2003207B3003308BD00AC1F3528A5
:10006800362837283D143D0803193B283C284B28DF
:100078003D0A031D4028412849280030AD000030C2
:10008800AC000030AB000030AA00AC175328003099
:10009800AD000030AC000030AB000030AA003108E1
:1000A8008039B2003208B7063108B2003207B3000F
:1000B8003308BC00B01F6128622863283C143C0840
:1000C80003196728682877283C0A031D6C286D28BF
:1000D80075280030B1000030B0000030AF000030AB
:1000E800AE00B0177F280030B1000030B0000030FB
:1000F800AF000030AE003C08031983288428892803
:100108003D08031D8828892892280030AD0000305A
:10011800AC000030AB000030AA00852B2A08B200E2
:100128003208F30030080A128A1520240A128A11AC
:10013800740883120313C3007308C2004208B20094
:10014800B301B401B5013508BB003408BA0033085F
:10015800B9003208B8004308B200B301B401B501D0
:100168003508C1003408C0003308BF003208BE009B
:100178002B08B2003208F3002F080A128A1520242F
:100188000A128A11740883120313C3007308C20089
:100198004208B200B301B401B5013208B807330808
:1001A80003110318013E0319DA28B90734080311AB
:1001B8000318013E0319E128BA073508031103188B
:1001C800013E0319E828BB074308B200B301B40194
:1001D800B5013208BE07330803110318013E03199D
:1001E800F628BF07340803110318013E0319FD2838
:1001F800C007350803110318013E03190429C10774
:100208002C08B2003208F3002E080A128A1520249E
:100218000A128A11740883120313C3007308C200F8
:100228004208B200B301B401B5013208B807330877
:1002380003110318013E03192229B90734080311D1
:100248000318013E03192929BA07350803110318B1
:10025800013E03193029BB074308B200B301B401BA
:10026800B5013208BE07330803110318013E03190C
:100278003E29BF07340803110318013E0319452915
:10028800C007350803110318013E03194C29C1079B
:100298000830B2000310B80DB90DBA0DBB0DB20B82
:1002A8004E292B08B2003208F3002E080A128A15CC
:1002B80020240A128A11740883120313C3007308D6
:1002C800C2004208B2004308B300B401B5013208C5
:1002D800B807330803110318013E03197429B90735
:1002E800340803110318013E03197B29BA0735089E
:1002F80003110318013E03198229BB072A08B2001B
:100308003208F3002F080A128A1520240A128A11CB
:10031800740883120313C3007308C2004208B200B2
:100328004308B300B401B5013208B8073308031114
:100338000318013E0319A129B9073408031103184A
:10034800013E0319A829BA07350803110318013E0D
:100358000319AF29BB070830B2000310B80DB90D57
:10036800BA0DBB0DB20BB1292A08B2003208F3004E
:100378002E080A128A1520240A128A117408831278
:100388000313C3007308C2004208B2004308B30055
:10039800B401B5013208B807330803110318013E48
:1003A8000319D729B907340803110318013E0319A3
:1003B800DE29BA07350803110318013E0319E52998
:1003C800BB072B08B2003208F30030080A128A155E
:1003D80020240A128A11740883120313C3007308B5
:1003E800C2004208B2004308B300B401B5013208A4
:1003F800BE07330803110318013E0319042ABF0777
:10040800340803110318013E03190B2AC0073508E5
:1004180003110318013E0319122AC1072C08B20060
:100428003208F3002F080A128A1520240A128A11AA
:10043800740883120313C3007308C2004208B20091
:100448004308B300B401B5013208BE0733080311ED
:100458000318013E0319312ABF0734080311031892
:10046800013E0319382AC007350803110318013E55
:1004780003193F2AC1072C08B2003208F3003008DC
:100488000A128A1520240A128A1174088312031387
:10049800C3007308C2004208B2004308B300B401A5
:1004A800B50108300310B20DB30DB40DB50DFF3E04
:1004B800031D562A3208BE07330803110318013EEC
:1004C8000319672ABF07340803110318013E0319EB
:1004D8006E2AC007350803110318013E0319752A4F
:1004E800C1073808B2003908B3003A08B4003B081D
:1004F800B50018300310B50CB40CB30CB20CFF3EA9
:10050800031D7E2A3208BE07330803110318013E73
:1005180003198F2ABF07340803110318013E031972
:10052800962AC007350803110318013E03199D2AAE
:10053800C1070830B2000310B80DB90DBA0DBB0DD4
:10054800B20B9F2A3D083C07B200B301B30D320835
:10055800823EC20033080318013EFF3EC300D12A81
:100568000130B2000310BE0DBF0DC00DC10DB20B9E
:10057800B62ABB1FC02AC12AC22A3E140130B200C3
:100588000310B80DB90DBA0DBB0DB20BC42AFF305C
:10059800C2070318C30AFF30C307C01FD42AD52ACD
:1005A800B42ABC01BB1FD92ADA2AF62AFF3038053B
:1005B800B200FF303905B300FF303A05B4007F3090
:1005C8003B05B50035083404330432040319ED2A19
:1005D800EE2AF12ABC01BC0AF62A3E1CF42AF52AA6
:1005E800F62AEE2A3C080319FA2AFB2A2C2B01309A
:1005F800BE07003003180130BF0700300318013070
:10060800C007003003180130C107411C0C2B0D2B0B
:100618002C2B3E08B2003F08B3004008B400410844
:10062800B5000130B600350DB50CB40CB30CB20CE6
:10063800B60B172B3508C1003408C0003308BF00BB
:100648003208BE000130C2070318C30A0030C307CE
:100658004308803AFF0080307F02031D352BFF30AE
:100668004202031C382B392B442B7F30831203138F
:10067800C1008030C0000030BF000030BE00792BC0
:10068800831203134308803AFF0080307F02031D62
:100698004F2B013042020318522B532B5F2B003093
:1006A80083120313C1000030C0000030BF000030C7
:1006B800BE00B701792B831203134208B200320837
:1006C800BD00FF30BE05FF30BF057F30C0050030DC
:1006D800C1053D1C702B712B722BC0173D08B20051
:1006E8000310320CB3003308C1003708B2003208D7
:1006F800C1044108AD004008AC003F08AB003E080B
:10070800AA0008000A128A1574240A128A110A1209
:100718008A1581250A128A110A128A1551230A128A
:100728008A110A128A159C230A128A1194300A1215
:100738008A15B7230A128A110D300A128A1547231F
:100748000A128A1141300A128A15B7230A128A112D
:100758000D300A128A1547230A128A1122300A120A
:100768008A15B7230A128A110D300A128A154723EF
:100778000A128A1101300A128A15B7230A128A113D
:100788000D300A128A1547230A128A11F701F70A4F
:1007980001300A128A1529250A128A119F300A1275
:1007A8008A15F7230A128A11083083120313D4001A
:1007B8005408F70001300A128A1529250A128A11ED
:1007C800A3300A128A15F7230A128A110E308312EF
:1007D8000313D4005408F70001300A128A1529259A
:1007E8000A128A11A7300A128A15F7230A128A11E7
:1007F800831203130711033083120313D5009730B4
:10080800D400D40B052CD50B052C83120313060832
:100818000A128A1531230A128A110A128A153E23EE
:100828000A128A1183120313D4005408E200033019
:1008380083120313D5009730D400D40B212CD50B89
:10084800212C83120313071562080A128A155526EC
:100858000A128A11F701F70A02300A128A152925A5
:100868000A128A11831203135E080A128A15AA242F
:100878000A128A11023083120313D4005408F700B5
:1008880002300A128A1529250A128A11AB300A1277
:100898008A15F7230A128A11033083120313D4002E
:1008A8005408F70002300A128A1529250A128A11FB
:1008B800831203135D080A128A15AA240A128A11E0
:1008C800043083120313D4005408F70002300A12CC
:1008D8008A1529250A128A11831203135C080A1241
:1008E8008A15AA240A128A11831203138710033067
:1008F80083120313D5009730D400D40B812CD50B69
:10090800812C01300A128A1531230A128A110A121F
:100918008A153E230A128A1183120313D40054083D
:10092800E100033083120313D5009730D400D40BB1
:100938009B2CD50B9B2C83120313871461080A1276
:100948008A15E3250A128A11083083120313D4008A
:100958005408F70002300A128A1529250A128A114A
:10096800831203135B080A128A15AA240A128A1131
:10097800093083120313D4005408F70002300A1216
:100988008A1529250A128A11831203135A080A1292
:100998008A15AA240A128A110A3083120313D40072
:1009A8005408F70002300A128A1529250A128A11FA
:1009B8008312031359080A128A15AA240A128A11E3
:1009C800831203130710033083120313D5009730E3
:1009D800D400D40BED2CD50BED2C01300A128A155E
:1009E80031230A128A110A128A153E230A128A1121
:1009F80083120313D4005408E00003308312031356
:100A0800D5009730D400D40B072DD50B072D8312B2
:100A18000313071460080A128A11B5260A128A11EC
:100A28000D3083120313D4005408F70002300A1261
:100A38008A1529250A128A118312031356080A12E5
:100A48008A15AA240A128A110E3083120313D400BD
:100A58005408F70002300A128A1529250A128A1149
:100A680078080A128A15AA240A128A110F308312EA
:100A78000313D4005408F70002300A128A152925F6
:100A88000A128A118312031358080A128A15AA2413
:100A98000A128A11103083120313D4005408F70085
:100AA80002300A128A1529250A128A1183120313A1
:100AB80057080A128A15AA240A128A116130831269
:100AC80003135F06031D692D6A2DD52D85300A1283
:100AD8008A15B7230A128A1120300A128A15472369
:100AE8000A128A11831203135E080A128A15472311
:100AF8000A128A112E300A128A1547230A128A11FD
:100B0800831203135D080A128A1547230A128A11F1
:100B1800831203135C080A128A1547230A128A11E2
:100B2800831203139A01DF010D300A128A15472335
:100B38000A128A110D300A128A1547230A128A11DD
:100B480094300A128A15B7230A128A110D300A1234
:100B58008A1547230A128A1141300A128A15B723C7
:100B68000A128A110D300A128A1547230A128A11AD
:100B780022300A128A15B7230A128A110D300A1276
:100B88008A1547230A128A1101300A128A15B723D7
:100B98000A128A110D300A128A1547230A128A117D
:100BA800FC2B62305F06031DDA2DDB2D402E7130E1
:100BB8000A128A15B7230A128A1120300A128A15D6
:100BC80047230A128A11831203135B080A128A1533
:100BD80047230A128A11831203135A080A128A1524
:100BE80047230A128A118312031359080A128A1515
:100BF80047230A128A11831203139A01DF010D3069
:100C08000A128A1547230A128A110D300A128A1508
:100C180047230A128A1194300A128A15B7230A1236
:100C28008A110D300A128A1547230A128A11413097
:100C38000A128A15B7230A128A110D300A128A1568
:100C480047230A128A1122300A128A15B7230A1278
:100C58008A110D300A128A1547230A128A110130A7
:100C68000A128A15B7230A128A110D300A128A1538
:100C780047230A128A11FC2B63305F06031D452E99
:100C8800462EB12E5B300A128A15B7230A128A1132
:100C980020300A128A1547230A128A118312031375
:100CA80056080A128A1547230A128A1178080A1266
:100CB8008A1547230A128A118312031358080A1245
:100CC8008A1547230A128A118312031357080A1236
:100CD8008A1547230A128A11831203139A01DF0126
:100CE8000D300A128A1547230A128A110D300A128A
:100CF8008A1547230A128A1194300A128A15B723D3
:100D08000A128A110D300A128A1547230A128A110B
:100D180041300A128A15B7230A128A110D300A12B5
:100D28008A1547230A128A1122300A128A15B72314
:100D38000A128A110D300A128A1547230A128A11DB
:100D480001300A128A15B7230A128A110D300A12C5
:100D58008A1547230A128A11FC2BFC2B0A128A11C6
:100D68000C2883120313D300443053020318BD2EFA
:100D7800BE2E762F2D30CF004F08D6005308CF0057
:100D8800D001D101D2015208F6005108F5005008EF
:100D9800F4004F08F30001300A128A1544270A129A
:100DA8008A11760883120313B1007508B00074081D
:100DB800AF007308AE003F30AD004C30AC00CC3013
:100DC800AB00CD30AA000A128A1125200A128A1116
:100DD800831203132D08C7002C08C6002B08C50072
:100DE8002A08C4000A128A15C8260A128A11831210
:100DF80003134508FA004408F9007908C93EF900C8
:100E08007A080318013EFF3EFA00F909FA09F90ABF
:100E18000319FA0A6430F3000030F4007A08F60087
:100E28007908F5000A128A15E3240A128A11730850
:100E380083120313CF004F08F8007808CF00D001C1
:100E48004F08F3005008F4009C30F500FF30F6001E
:100E58000A128A1549240A128A1179087307F900B7
:100E68007A0803187A0A7407FA000A30F300003087
:100E7800F4007A08F6007908F5000A128A15E324C6
:100E88000A128A11730883120313CF004F08D8007F
:100E98005808CF00D0014F08F3005008F400F6308E
:100EA800F500FF30F6000A128A1549240A128A1141
:100EB80079087307F9007A0803187A0A7407FA00A0
:100EC8007908303E83120313CF004F08D700780803
:100ED800303ECF004F08F8005808303ECF004F088A
:100EE800D800D92F44305306031D7B2F7C2F8D2F1C
:100EF8002030CF004F08D6003030CF004F08F80020
:100F08003030CF004F08D8003030CF004F08D7001E
:100F1800D92F2B30CF004F08D6005308CF00D0016F
:100F28004F08F9005008FA007908F3007A08F4002D
:100F3800F501F60100300A128A1544270A128A11AF
:100F4800760883120313B1007508B0007408AF0067
:100F58007308AE003F30AD004C30AC00CC30AB0075
:100F6800CD30AA000A128A1125200A128A1183128A
:100F780003132D08C7002C08C6002B08C5002A0833
:100F8800C4000A128A15C8260A128A11831203138A
:100F98004508FA004408F9007908C93EF9007A08BA
:100FA8000318013EFF3EFA000E2F0800F300731CE1
:100FB800DE2FDF2FE32F831203130816E62F831289
:100FC80003130812F31CE92FEA2FEC2F8816ED2FD4
:100FD8008812731DF02FF12FF32F0817F42F081321
:100FE800F31DF72FF82FFA2F8817FB2F8813080007
:1010000008308A000408840A820700342034273418
:10101000633427342D3420345034613472346134D5
:1010200020346D346F3473347434723461347234F8
:10103000203465346C3420345434653472346D3467
:101040006F346D346534743472346F34003420344A
:101050002734623427342D342034503461347234D0
:10106000613420346D346F347334743472346134C9
:101070007234203465346C34203463346F346E340D
:101080007434613464346F3472340034203427345F
:10109000613427342D342034503461347234613457
:1010A00020346D346F347334743472346134723478
:1010B000203465346C3420344134443443340034B7
:1010C000563461346C346F34723420346434653493
:1010D0006C3420345434653472346D346F346D3470
:1010E0006534743472346F343A34003456346134B5
:1010F0006C346F3472342034643465346C3420348E
:1011000043346F346E347434613464346F34723405
:101110003A340034563461346C346F3472342034D1
:10112000643465346C3420344134443443343A34C8
:101130000034503452344534533449344F344E34EF
:1011400045343A3420340034533431343A340034A2
:10115000533432343A340034533433343A34003470
:041160002E340034F5
:10166200F300730883120313930008008316031315
:10167200141C3C2B3D2B372B08000A128A153723EA
:101682000A128A158312031313080800F300831247
:1016920003130C1E4D2B4E2B482B73089900080088
:1016A20000300A128A1582230A128A1501300A12A0
:1016B2008A1582230A128A15080083120313981CC2
:1016C200632B642B662B181218168C1E692B6A2B3F
:1016D200662B1A080800F600831603138712761D7C
:1016E200732B742B782B7508940087157C2B730849
:1016F200750494008711760874048312031394000E
:101702000800F60083120313081176080A128A11E0
:10171200DA270A128A158312031388150B30F50093
:101722006230F400F40B932BF50B932B0000831221
:1017320003138811080083160313981618128312D4
:101742000313981783160313071318138312031333
:101752001816831603138C16831203131813831699
:10176200031387173330990018150800F500C92BA9
:10177200750884000A128A1500200A128A150A12B4
:101782008A1547230A128A150130F4007408F507F6
:10179200750884000A128A1500200A128A15003A76
:1017A200031DD42BD52BB92B0800831203138C1ED7
:1017B200DB2BDC2BF02B0A128A155E230A128A1508
:1017C200F000700883120313DF009F30F000E92B52
:1017D200F00BE82BEC2BED2B831203138C12720807
:1017E2008A00710E8300FE0E7E0E0900831203131F
:1017F200A200A001A101122C2008220784000A12D3
:101802008A1500200A128A150A128A15AA240A12B7
:101812008A15013083120313A0070318A10A0030AE
:10182200A1072008220784000A128A1500200A1242
:101832008A15003A031D1E2C1F2CFD2B0800831253
:101842000313A400A001A1017308F500F6017508B5
:10185200A2007608A300241C2F2C302C362C220840
:10186200A0070318A10A2308A10701300310A20D43
:10187200A30DFF3E031D372C0310A40C2408031DE7
:10188200432C442C2C2C2108F4002008F3000800DF
:1018920083120313A001A101731C502C512C592C4B
:1018A200750883120313A0070318A10A7608A1077B
:1018B20001300310F50DF60DFF3E031D5A2C0130C9
:1018C2000310F40CF30CFF3E031D612C7308740427
:1018D200031D6C2C6D2C4D2C831203132108F40074
:1018E2002008F30008008316031788018901831674
:1018F2000313850183120313850103308316031337
:101902008600831203138601903083160313870027
:1019120083120313870183160313880183120313AF
:1019220088018316031389018312031389018B171C
:101932000B17071587140714F301F401F501203082
:101942000A128A156C230A128A15831203138C1247
:101952000800F70077080F39F4007408F5007708DB
:10196200F039F4007408F6008312031308157608A0
:10197200F40004300310F40CFF3E031DBB2C74086A
:101982000A128A11DA270A128A158312031388159A
:101992001A30F400F40BCB2C0000831203138811CD
:1019A20075080A128A11DA270A128A15831203139A
:1019B20088151A30F400F40BDC2C00008312031398
:1019C2008811080083120313A101A2017308740491
:1019D2000319EC2CED2C242DA001A00AFB2C0130C4
:1019E2000310F30DF40DFF3E031DF12C0130F7003F
:1019F2007708A007F41FFE2CFF2CF02C01300310F7
:101A0200A10DA20DFF3E031D002D74087602031DD9
:101A12000C2D73087502031C0F2D102D172D730842
:101A2200F5027408031CF603F602211401300310B8
:101A3200F40CF30CFF3E031D182D0130A002031D10
:101A4200232D242DFF2C2208F4002108F300080086
:101A520083120313A2002203031D302D312D562DB4
:101A620077087F3EA0002008A5002508A0000430CA
:101A72000310A00CFF3E031D392D2008A1002108F0
:101A8200A30025080F39A0002008A40023080A1289
:101A92008A1582230A128A158312031324080A1252
:101AA2008A1582230A128A15802D02302206031D0E
:101AB2005B2D5C2D802D7708BF3EA0002008A5007D
:101AC2002508A00004300310A00CFF3E031D642D66
:101AD2002008A1002108A30025080F39A000200832
:101AE200A40023080A128A1582230A128A15831275
:101AF200031324080A128A1582230A128A1508007F
:101B020000300A128A11DA270A128A153430831237
:101B12000313A100F130A000A00B8D2DA10B8D2D80
:101B220003300A128A1582230A128A150D30831293
:101B32000313A100FB30A000A00B9D2DA10B9D2D36
:101B420003300A128A1582230A128A151D30831263
:101B52000313A1009030A000A00BAD2DA10BAD2D61
:101B6200000003300A128A1582230A128A150230F3
:101B72000A128A1582230A128A1502300A128A155B
:101B820082230A128A1508300A128A1582230A123F
:101B92008A1500300A128A1582230A128A150C301D
:101BA2000A128A1582230A128A1500300A128A152D
:101BB20082230A128A1506300A128A1582230A1211
:101BC2008A15080083120313A5002508A300A401A7
:101BD2002308F9002408FA006430F3000030F4000E
:101BE2007A08F6007908F5000A128A15E3240A1227
:101BF2008A15730883120313A3002308DB005B0812
:101C0200A300A4012308F3002408F4009C30F5008B
:101C1200FF30F6000A128A1549240A128A15790839
:101C22007307F9007A0803187A0A7407FA000A306F
:101C3200F3000030F4007A08F6007908F5000A1281
:101C42008A15E3240A128A15730883120313A30068
:101C52002308DA005A08A300A4012308F300240889
:101C6200F400F630F500FF30F6000A128A15492416
:101C72000A128A1579087307F9007A0803187A0A92
:101C82007407FA007908303E83120313A300230875
:101C9200D9005B08303EA3002308DB005A08303E1F
:101CA200A3002308DA00080083120313A500250805
:101CB200A300A4010310230DF900240DFA006430DF
:101CC200F3000030F4007A08F6007908F5000A12F1
:101CD2008A15E3240A128A15730883120313A300D8
:101CE2002308DE005E08A300A4012308F3002408F1
:101CF200F4009C30F500FF30F6000A128A154924E0
:101D02000A128A1579087307F9007A0803187A0A01
:101D12007407FA000A30F3000030F4007A08F60083
:101D22007908F5000A128A15E3240A128A15730843
:101D320083120313A3002308DD005D08A300A4019E
:101D42002308F3002408F400F630F500FF30F60013
:101D52000A128A1549240A128A1579087307F900AA
:101D62007A0803187A0A7407FA007908303E831257
:101D72000313A3002308DC005E08303EA3002308FF
:101D8200DE005D08303EA3002308DD0008000310DA
:101D920083120313460D470DC8004808CE004E08B3
:101DA200031DD42ED52EDE2E0030C7000030C60013
:101DB2000030C5000030C400432F4408C800450865
:101DC200C9004608CA004708CB001F300310CB0CDD
:101DD200CA0CC90CC80CFF3E031DE72E4808CC00F4
:101DE2004C08CD00C617FF30C405FF30C505FF30D3
:101DF200C6050030C7059630CE02CE1F012F022F36
:101E02001C2F4E08803A973E0318082F092F0A2FDD
:101E1200D52E01300310C70CC60CC50CC40CFF3EF6
:101E2200031D0B2F0130C8004808CE07031D1A2FCF
:101E32001B2F0A2F332F20304E02031C212F222F5B
:101E42002E2FD52E0130C8000310C40DC50DC60DAE
:101E5200C70DC80B252F0130CE024E08031D322FAD
:101E6200332F232F4D080319372F382F432FC4093F
:101E7200C509C609C709C40A0319C50A0319C60A4E
:101E82000319C70A080083120313A40024080319C4
:101E92004B2F4C2F602FF61F4F2F502F602F73099F
:101EA200A6007409A7007509A8007609A900A60A68
:101EB2000319A70A0319A80A0319A90A682F7608A1
:101EC200A9007508A8007408A7007308A600760880
:101ED200750474047304031D6F2F702F792F003063
:101EE200F6000030F5000030F4000030F300FF2F60
:101EF2009630A0002008A5008B2F0130A0002008FA
:101F0200A50701300310A90CA80CA70CA60CFF3ED4
:101F1200031D832FFE302905031D902F912F7E2F45
:101F2200AD2F0130A0002008A5070130A607003020
:101F320003180130A707003003180130A80700304A
:101F420003180130A90701300310A90CA80CA70C33
:101F5200A60CFF3E031DA52FFF302905031DB22F3E
:101F6200B32F922FBF2F0130A5020130A000031022
:101F7200A60DA70DA80DA90DA00BB82FA81BC22F47
:101F8200C32FC92F023025020318C82FC92FB42F1F
:101F92002518CC2FCD2FD52FFF30A605FF30A70552
:101FA2007F30A805FF30A9050310A50C2508A00065
:101FB200A101A201A30118300310A00DA10DA20DD1
:101FC200A30DFF3E031DDD2F2008A6042108A70450
:101FD2002208A8042308A90424080319F12FF22FC8
:101FE200F72FF61FF52FF62FF72FA9172908F6005E
:0E1FF2002808F5002708F4002608F300080070
:04400E00F22FFF3F4F
:00000001FF
