:020000040000FA
:060000000A128A110C280F
:10000800FE00030EF1000A08F2000A128A15D42B2A
:100018000A128A110F28F801F901FA018312031351
:10002800D601D701D801D901DA01DB01DC01DD01F4
:10003800DE01DF01E001E101E201E30183010A12CF
:100048008A11872B831203132D088039B2003208D6
:10005800B7002D08B2003207B3003308BD00AC1F4B
:100068003628372838283D143D0803193C283D28F0
:100078004C283D0A031D412842284A280030AD007B
:100088000030AC000030AB000030AA00AC17542898
:100098000030AD000030AC000030AB000030AA00EA
:1000A80031088039B2003208B7063108B200320789
:1000B800B3003308BC00B01F6228632864283C14CE
:1000C8003C0803196828692878283C0A031D6D280C
:1000D8006E2876280030B1000030B0000030AF0044
:1000E8000030AE00B01780280030B1000030B000FA
:1000F8000030AF000030AE003C0803198428852882
:100108008A283D08031D89288A2893280030AD00D5
:100118000030AC000030AB000030AA00862B2A0863
:10012800B2003208F30030080A128A151E240A1297
:100138008A11740883120313C3007308C2004208AB
:10014800B200B301B401B5013508BB003408BA00E8
:100158003308B9003208B8004308B200B301B4014B
:10016800B5013508C1003408C0003308BF003208A3
:10017800BE002B08B2003208F3002F080A128A15B5
:100188001E240A128A11740883120313C300730809
:10019800C2004208B200B301B401B5013208B80781
:1001A800330803110318013E0319DB28B907340883
:1001B80003110318013E0319E228BA073508031191
:1001C8000318013E0319E928BB074308B200B3012D
:1001D800B401B5013208BE07330803110318013E04
:1001E8000319F728BF07340803110318013E031940
:1001F800FE28C007350803110318013E0319052915
:10020800C1072C08B2003208F3002E080A128A151A
:100218001E240A128A11740883120313C300730878
:10022800C2004208B200B301B401B5013208B807F0
:10023800330803110318013E03192329B9073408A9
:1002480003110318013E03192A29BA0735080311B7
:100258000318013E03193129BB074308B200B30153
:10026800B401B5013208BE07330803110318013E73
:1002780003193F29BF07340803110318013E031966
:100288004629C007350803110318013E03194D29F3
:10029800C1070830B2000310B80DB90DBA0DBB0D77
:1002A800B20B4F292B08B2003208F3002E080A12AD
:1002B8008A151E240A128A11740883120313C300B4
:1002C8007308C2004208B2004308B300B401B50184
:1002D8003208B807330803110318013E03197529BA
:1002E800B907340803110318013E03197C29BA071A
:1002F800350803110318013E03198329BB072A088F
:10030800B2003208F3002F080A128A151E240A12B6
:100318008A11740883120313C3007308C2004208C9
:10032800B2004308B300B401B5013208B807330876
:1003380003110318013E0319A229B9073408031150
:100348000318013E0319A929BA0735080311031830
:10035800013E0319B029BB070830B2000310B80DDD
:10036800B90DBA0DBB0DB20BB2292A08B20032087A
:10037800F3002E080A128A151E240A128A1174081C
:1003880083120313C3007308C2004208B200430873
:10039800B300B401B5013208B807330803110318D4
:1003A800013E0319D829B907340803110318013E7F
:1003B8000319DF29BA07350803110318013E031989
:1003C800E629BB072B08B2003208F30030080A12EE
:1003D8008A151E240A128A11740883120313C30093
:1003E8007308C2004208B2004308B300B401B50163
:1003F8003208BE07330803110318013E0319052A02
:10040800BF07340803110318013E03190C2AC0075B
:10041800350803110318013E0319132AC1072C08D4
:10042800B2003208F3002F080A128A151E240A1295
:100438008A11740883120313C3007308C2004208A8
:10044800B2004308B300B401B5013208BE0733084F
:1004580003110318013E0319322ABF073408031198
:100468000318013E0319392AC00735080311031878
:10047800013E0319402AC1072C08B2003208F300D4
:1004880030080A128A151E240A128A117408831267
:100498000313C3007308C2004208B2004308B30044
:1004A800B401B50108300310B20DB30DB40DB50D8C
:1004B800FF3E031D572A3208BE07330803110318ED
:1004C800013E0319682ABF07340803110318013EC7
:1004D80003196F2AC007350803110318013E0319D1
:1004E800762AC1073808B2003908B3003A08B400C0
:1004F8003B08B50018300310B50CB40CB30CB20CA3
:10050800FF3E031D7F2A3208BE0733080311031874
:10051800013E0319902ABF07340803110318013E4E
:100528000319972AC007350803110318013E031958
:100538009E2AC1070830B2000310B80DB90DBA0DD4
:10054800BB0DB20BA02A3D083C07B200B301B30DA6
:100558003208823EC20033080318013EFF3EC30042
:10056800D22A0130B2000310BE0DBF0DC00DC10D5F
:10057800B20BB72ABB1FC12AC22AC32A3E140130B4
:10058800B2000310B80DB90DBA0DBB0DB20BC52AD8
:10059800FF30C2070318C30AFF30C307C01FD52A9C
:1005A800D62AB52ABC01BB1FDA2ADB2AF72AFF3074
:1005B8003805B200FF303905B300FF303A05B40002
:1005C8007F303B05B5003508340433043204031981
:1005D800EE2AEF2AF22ABC01BC0AF72A3E1CF52AA9
:1005E800F62AF72AEF2A3C080319FB2AFC2A2D2BA6
:1005F8000130BE07003003180130BF070030031870
:100608000130C007003003180130C107411C0D2B11
:100618000E2B2D2B3E08B2003F08B3004008B40053
:100628004108B5000130B600350DB50CB40CB30C5B
:10063800B20CB60B182B3508C1003408C0003308BB
:10064800BF003208BE000130C2070318C30A0030D9
:10065800C3074308803AFF0080307F02031D362B12
:10066800FF304202031C392B3A2B452B7F30831273
:100678000313C1008030C0000030BF000030BE004E
:100688007A2B831203134308803AFF0080307F02DD
:10069800031D502B013042020318532B542B602B9F
:1006A800003083120313C1000030C0000030BF00C7
:1006B8000030BE00B7017A2B831203134208B20040
:1006C8003208BD00FF30BE05FF30BF057F30C005D2
:1006D8000030C1053D1C712B722B732BC0173D08D0
:1006E800B2000310320CB3003308C1003708B2005F
:1006F8003208C1044108AD004008AC003F08AB0017
:100708003E08AA0008000A128A1572240A128A11E1
:100718000A128A1581250A128A110A128A154F238C
:100728000A128A110A128A159A230A128A118A3021
:100738000A128A15B5230A128A110D300A128A156F
:1007480045230A128A113A300A128A15B5230A1269
:100758008A110D300A128A1545230A128A111E3091
:100768000A128A15B5230A128A110D300A128A153F
:1007780045230A128A1101300A128A15B5230A1272
:100788008A110D300A128A1545230A128A11F701B7
:10079800F70A01300A128A1529250A128A1195309A
:1007A8000A128A15F5230A128A11083083120313D4
:1007B800D4005408F70001300A128A1529250A12B4
:1007C8008A1199300A128A15F5230A128A110E30F5
:1007D80083120313D4005408F70001300A128A1553
:1007E80029250A128A119D300A128A15F5230A1240
:1007F8008A11831203130711033083120313D500E0
:100808009730D400D40B062CD50B062C8312031377
:1008180006080A128A152F230A128A110A128A1543
:100828003C230A128A1183120313D4005408E200ED
:10083800033083120313D5009730D400D40B222C35
:10084800D50B222C83120313071562080A128A1586
:1008580055260A128A11F701F70A02300A128A1578
:1008680029250A128A11831203135E080A128A15AF
:10087800AA240A128A11023083120313D4005408DE
:10088800F70002300A128A1529250A128A11A130A6
:100898000A128A15F5230A128A11033083120313E8
:1008A800D4005408F70002300A128A1529250A12C2
:1008B8008A11831203135D080A128A15AA240A12E0
:1008C8008A11043083120313D4005408F70002304D
:1008D8000A128A1529250A128A11831203135C0841
:1008E8000A128A15AA240A128A118312031387107E
:1008F800033083120313D5009730D400D40B822C15
:10090800D50B822C01300A128A152F230A128A115C
:100918000A128A153C230A128A1183120313D4007F
:100928005408E100033083120313D5009730D40034
:10093800D40B9C2CD50B9C2C8312031387146108B1
:100948000A128A15E3250A128A1108308312031342
:10095800D4005408F70002300A128A1529250A1211
:100968008A11831203135B080A128A15AA240A1231
:100978008A11093083120313D4005408F700023097
:100988000A128A1529250A128A11831203135A0892
:100998000A128A15AA240A128A110A30831203132A
:1009A800D4005408F70002300A128A1529250A12C1
:1009B8008A118312031359080A128A15AA240A12E3
:1009C8008A11831203130710033083120313D5000F
:1009D8009730D400D40BEE2CD50BEE2C01300A1234
:1009E8008A152F230A128A110A128A153C230A1221
:1009F8008A1183120313D4005408E00003308312D1
:100A08000313D5009730D400D40B082DD50B082D2F
:100A180083120313071460080A128A11B6260A12F1
:100A28008A110D3083120313D4005408F7000230E2
:100A38000A128A1529250A128A11831203135608E5
:100A48000A128A15AA240A128A110E308312031375
:100A5800D4005408F70002300A128A1529250A1210
:100A68008A1178080A128A15AA240A128A110F30E4
:100A780083120313D4005408F70002300A128A15AF
:100A880029250A128A118312031358080A128A1593
:100A9800AA240A128A11103083120313D4005408AE
:100AA800F70002300A128A1529250A128A118312C0
:100AB800031357080A128A15AA240A128A116130E8
:100AC800831203135F06031D6A2D6B2DD62D7B3011
:100AD8000A128A15B5230A128A1120300A128A15B9
:100AE80045230A128A11831203135E080A128A1513
:100AF80045230A128A112E300A128A1545230A1232
:100B08008A11831203135D080A128A1545230A12F3
:100B18008A11831203135C080A128A1545230A12E4
:100B28008A11831203139A01DF010D300A128A1504
:100B380045230A128A110D300A128A1545230A1212
:100B48008A118A300A128A15B5230A128A110D30C1
:100B58000A128A1545230A128A113A300A128A158E
:100B6800B5230A128A110D300A128A1545230A1272
:100B78008A111E300A128A15B5230A128A110D30FD
:100B88000A128A1545230A128A1101300A128A1597
:100B9800B5230A128A110D300A128A1545230A1242
:100BA8008A11FD2B62305F06031DDB2DDC2D412EE3
:100BB80067300A128A15B5230A128A1120300A12E0
:100BC8008A1545230A128A11831203135B080A1235
:100BD8008A1545230A128A11831203135A080A1226
:100BE8008A1545230A128A118312031359080A1217
:100BF8008A1545230A128A11831203139A01DF0109
:100C08000D300A128A1545230A128A110D300A126C
:100C18008A1545230A128A118A300A128A15B523C1
:100C28000A128A110D300A128A1545230A128A11EE
:100C38003A300A128A15B5230A128A110D300A129F
:100C48008A1545230A128A111E300A128A15B523FD
:100C58000A128A110D300A128A1545230A128A11BE
:100C680001300A128A15B5230A128A110D300A12A8
:100C78008A1545230A128A11FD2B63305F06031D6E
:100C8800462E472EB22E51300A128A15B5230A1263
:100C98008A1120300A128A1545230A128A118312F2
:100CA800031356080A128A1545230A128A1178086E
:100CB8000A128A1545230A128A1183120313580847
:100CC8000A128A1545230A128A1183120313570838
:100CD8000A128A1545230A128A11831203139A01EC
:100CE800DF010D300A128A1545230A128A110D30C8
:100CF8000A128A1545230A128A118A300A128A159D
:100D0800B5230A128A110D300A128A1545230A12D0
:100D18008A113A300A128A15B5230A128A110D303F
:100D28000A128A1545230A128A111E300A128A15D8
:100D3800B5230A128A110D300A128A1545230A12A0
:100D48008A1101300A128A15B5230A128A110D3048
:100D58000A128A1545230A128A11FD2BFD2B0A1245
:100D68008A110C2883120313D3004430530203184A
:100D7800BE2EBF2E772F2D30CF004F08D600530838
:100D8800CF00D001D101D2015208F6005108F50078
:100D98005008F4004F08F30001300A128A1544275E
:100DA8000A128A11760883120313B1007508B0007D
:100DB8007408AF007308AE003F30AD004C30AC0093
:100DC800CC30AB00CD30AA000A128A1126200A12B4
:100DD8008A11831203132D08C7002C08C6002B089C
:100DE800C5002A08C4000A128A15C8260A128A11E0
:100DF800831203134508FA004408F9007908C93E2C
:100E0800F9007A080318013EFF3EFA00F909FA09C9
:100E1800F90A0319FA0A6430F3000030F4007A087A
:100E2800F6007908F5000A128A15E3240A128A11D5
:100E3800730883120313CF004F08F8007808CF0017
:100E4800D0014F08F3005008F4009C30F500FF3043
:100E5800F6000A128A1547240A128A1179087307BC
:100E6800F9007A0803187A0A7407FA000A30F300BE
:100E78000030F4007A08F6007908F5000A128A159D
:100E8800E3240A128A11730883120313CF004F0850
:100E9800D8005808CF00D0014F08F3005008F400DC
:100EA800F630F500FF30F6000A128A1547240A12B8
:100EB8008A1179087307F9007A0803187A0A7407FF
:100EC800FA007908303E83120313CF004F08D70089
:100ED8007808303ECF004F08F8005808303ECF0061
:100EE8004F08D800DA2F44305306031D7C2F7D2F7E
:100EF8008E2F2030CF004F08D6003030CF004F085B
:100F0800F8003030CF004F08D8003030CF004F08FD
:100F1800D700DA2F2B30CF004F08D6005308CF0068
:100F2800D0014F08F9005008FA007908F3007A0850
:100F3800F400F501F60100300A128A1544270A1256
:100F48008A11760883120313B1007508B00074087B
:100F5800AF007308AE003F30AD004C30AC00CC3071
:100F6800AB00CD30AA000A128A1126200A128A1173
:100F7800831203132D08C7002C08C6002B08C500D0
:100F88002A08C4000A128A15C8260A128A1183126E
:100F980003134508FA004408F9007908C93EF90026
:100FA8007A080318013EFF3EFA000F2F0800F300ED
:100FB800731CDF2FE02FE42F831203130816E72F8B
:100FC800831203130812F31CEA2FEB2FED2F881658
:100FD800EE2F8812731DF12FF22FF42F0817F52F1B
:100FE8000813F31DF82FF92FFB2F8817FC2F8813F0
:020FF8000800EF
:1010000008308A000408840A8207003443342934F3
:10101000503461347234613420346D346F3473343D
:101020007434723461347234203465346C34203456
:101030005434653472346D346F346D3465347434C3
:1010400072346F34003442342934203450346134E3
:101050007234613420346D346F34733474347234C8
:1010600061347234203465346C34203463346F342A
:101070006E347434613464346F3472340034413407
:1010800029342034503461347234613420346D3466
:101090006F34733474347234613472342034653490
:1010A0006C34203441344434433400345634613495
:1010B0006C346F3472342034643465346C342034CE
:1010C0005434653472346D346F346D346534743433
:1010D00072346F343A340034563461346C346F34C3
:1010E00072342034643465346C34203443346F34C7
:1010F0006E347434613464346F3472343A3400348E
:10110000563461346C346F34723420346434653452
:101110006C3420344134443443343A340034503451
:1011200052344534533449344F344E3445343A34D0
:1011300020340034533431343A34003453343234AC
:101140003A340034533433343A3400342E340034D7
:10165E00F300730883120313930008008316031319
:10166E00141C3A2B3B2B352B08000A128A153523F6
:10167E000A128A158312031313080800F30083124B
:10168E0003130C1E4B2B4C2B462B73089900080092
:10169E0000300A128A1580230A128A1501300A12A6
:1016AE008A1580230A128A15080083120313981CC8
:1016BE00612B622B642B181218168C1E672B682B4D
:1016CE00642B1A080800F600831603138712761D82
:1016DE00712B722B762B7508940087157A2B730855
:1016EE007504940087117608740483120313940012
:1016FE000800F60083120313081176080A128A11E5
:10170E00DB270A128A158312031388150B30F50096
:10171E006230F400F40B912BF50B912B0000831229
:10172E0003138811080083160313981618128312D8
:10173E000313981783160313071318138312031337
:10174E001816831603138C1683120313181383169D
:10175E00031387173330990018150800F500C72BAF
:10176E00750884000A128A1500200A128A150A12B8
:10177E008A1545230A128A150130F4007408F507FC
:10178E00750884000A128A1500200A128A15003A7A
:10179E00031DD22BD32BB72B0800831203138C1EE1
:1017AE00D92BDA2BEE2B0A128A155C230A128A1514
:1017BE00F000700883120313DF009F30F000E72B58
:1017CE00F00BE62BEA2BEB2B831203138C12720811
:1017DE008A00710E8300FE0E7E0E09008312031323
:1017EE00A200A001A101102C2008220784000A12D9
:1017FE008A1500200A128A150A128A15AA240A12BC
:10180E008A15013083120313A0070318A10A0030B2
:10181E00A1072008220784000A128A1500200A1246
:10182E008A15003A031D1C2C1D2CFB2B080083125D
:10183E000313A400A001A1017308F500F6017508B9
:10184E00A2007608A300241C2D2C2E2C342C22084A
:10185E00A0070318A10A2308A10701300310A20D47
:10186E00A30DFF3E031D352C0310A40C2408031DED
:10187E00412C422C2A2C2108F4002008F3000800E9
:10188E0083120313A001A101731C4E2C4F2C572C55
:10189E00750883120313A0070318A10A7608A1077F
:1018AE0001300310F50DF60DFF3E031D582C0130CF
:1018BE000310F40CF30CFF3E031D5F2C730874042D
:1018CE00031D6A2C6B2C4B2C831203132108F4007E
:1018DE002008F30008008316031788018901831678
:1018EE00031385018312031385010330831603133B
:1018FE0086008312031386018316031387010716CE
:10190E00871783120313870183160313880183122B
:10191E0003138801831603138901831203138901AC
:10192E008B170B17E301071587140714F301F40146
:10193E00F50120300A128A156A230A128A158312BB
:10194E0003138C120800F70077080F39F40074089F
:10195E00F5007708F039F4007408F60083120313CB
:10196E0008157608F40004300310F40CFF3E031D36
:10197E00BB2C74080A128A11DB270A128A158312ED
:10198E00031388151A30F400F40BCB2C00008312CD
:10199E000313881175080A128A11DB270A128A1599
:1019AE008312031388151A30F400F40BDC2C00009C
:1019BE00831203138811080083120313A101A201DD
:1019CE00730874040319EC2CED2C242DA001A00A2D
:1019DE00FB2C01300310F30DF40DFF3E031DF12C13
:1019EE000130F7007708A007F41FFE2CFF2CF02C17
:1019FE0001300310A10DA20DFF3E031D002D740832
:101A0E007602031D0C2D73087502031C0F2D102D6D
:101A1E00172D7308F5027408031CF603F602211441
:101A2E0001300310F40CF30CFF3E031D182D013092
:101A3E00A002031D232D242DFF2C2208F4002108C3
:101A4E00F300080083120313A2002203031D302D9E
:101A5E00312D562D77087F3EA0002008A5002508C1
:101A6E00A00004300310A00CFF3E031D392D2008EA
:101A7E00A1002108A30025080F39A0002008A4000A
:101A8E0023080A128A1580230A128A158312031359
:101A9E0024080A128A1580230A128A15802D023014
:101AAE002206031D5B2D5C2D802D7708BF3EA00006
:101ABE002008A5002508A00004300310A00CFF3E4E
:101ACE00031D642D2008A1002108A30025080F394D
:101ADE00A0002008A40023080A128A1580230A12E7
:101AEE008A158312031324080A128A1580230A12F8
:101AFE008A15080000300A128A11DB270A128A158D
:101B0E00343083120313A100F130A000A00B8D2DF1
:101B1E00A10B8D2D03300A128A1580230A128A1505
:101B2E000D3083120313A100FB30A000A00B9D2DDE
:101B3E00A10B9D2D03300A128A1580230A128A15D5
:101B4E001D3083120313A1009030A000A00BAD2D09
:101B5E00A10BAD2D000003300A128A1580230A1244
:101B6E008A1502300A128A1580230A128A1502304B
:101B7E000A128A1580230A128A1508300A128A154B
:101B8E0080230A128A1500300A128A1580230A123F
:101B9E008A150C300A128A1580230A128A15003013
:101BAE000A128A1580230A128A1506300A128A151D
:101BBE0080230A128A15080083120313A500250834
:101BCE00A300A4012308F9002408FA006430F300EE
:101BDE000030F4007A08F6007908F5000A128A152A
:101BEE00E3240A128A15730883120313A300230831
:101BFE00DB005B08A300A4012308F3002408F40013
:101C0E009C30F500FF30F6000A128A1547240A129E
:101C1E008A1579087307F9007A0803187A0A740787
:101C2E00FA000A30F3000030F4007A08F600790862
:101C3E00F5000A128A15E3240A128A157308831214
:101C4E000313A3002308DA005A08A300A4012308F3
:101C5E00F3002408F400F630F500FF30F6000A1207
:101C6E008A1547240A128A1579087307F9007A082B
:101C7E0003187A0A7407FA007908303E83120313A8
:101C8E00A3002308D9005B08303EA3002308DB0025
:101C9E005A08303EA3002308DA000800831203130B
:101CAE00A5002508A300A4010310230DF900240D9F
:101CBE00FA006430F3000030F4007A08F600790878
:101CCE00F5000A128A15E3240A128A157308831284
:101CDE000313A3002308DE005E08A300A40123085B
:101CEE00F3002408F4009C30F500FF30F6000A12D1
:101CFE008A1547240A128A1579087307F9007A089B
:101D0E0003187A0A7407FA000A30F3000030F40060
:101D1E007A08F6007908F5000A128A15E3240A12E9
:101D2E008A15730883120313A3002308DD005D08D0
:101D3E00A300A4012308F3002408F400F630F500F4
:101D4E00FF30F6000A128A1547240A128A157908FE
:101D5E007307F9007A0803187A0A7407FA007908EB
:101D6E00303E83120313A3002308DC005E08303ECE
:101D7E00A3002308DE005D08303EA3002308DD002B
:101D8E000800031083120313460D470DC8004808C0
:101D9E00CE004E08031DD42ED52EDE2E0030C700E9
:101DAE000030C6000030C5000030C400432F440888
:101DBE00C8004508C9004608CA004708CB001F30B6
:101DCE000310CB0CCA0CC90CC80CFF3E031DE72E2A
:101DDE004808CC004C08CD00C617FF30C405FF30B4
:101DEE00C505FF30C6050030C7059630CE02CE1FA2
:101DFE00012F022F1C2F4E08803A973E0318082FF2
:101E0E00092F0A2FD52E01300310C70CC60CC50C96
:101E1E00C40CFF3E031D0B2F0130C8004808CE072F
:101E2E00031D1A2F1B2F0A2F332F20304E02031C97
:101E3E00212F222F2E2FD52E0130C8000310C40DB6
:101E4E00C50DC60DC70DC80B252F0130CE024E088D
:101E5E00031D322F332F232F4D080319372F382F01
:101E6E00432FC409C509C609C709C40A0319C50AFF
:101E7E000319C60A0319C70A080083120313A40024
:101E8E00240803194B2F4C2F602FF61F4F2F502F66
:101E9E00602F7309A6007409A7007509A8007609BA
:101EAE00A900A60A0319A70A0319A80A0319A90A61
:101EBE00682F7608A9007508A8007408A700730893
:101ECE00A6007608750474047304031D6F2F702F1B
:101EDE00792F0030F6000030F5000030F4000030AD
:101EEE00F300FF2F9630A0002008A5008B2F0130A5
:101EFE00A0002008A50701300310A90CA80CA70C00
:101F0E00A60CFF3E031D832FFE302905031D902FC7
:101F1E00912F7E2FAD2F0130A0002008A507013094
:101F2E00A607003003180130A70700300318013050
:101F3E00A807003003180130A90701300310A90CBF
:101F4E00A80CA70CA60CFF3E031DA52FFF302905DC
:101F5E00031DB22FB32F922FBF2F0130A5020130D8
:101F6E00A0000310A60DA70DA80DA90DA00BB82F4C
:101F7E00A81BC22FC32FC92F023025020318C82F4A
:101F8E00C92FB42F2518CC2FCD2FD52FFF30A60556
:101F9E00FF30A7057F30A805FF30A9050310A50C5B
:101FAE002508A000A101A201A30118300310A00D65
:101FBE00A10DA20DA30DFF3E031DDD2F2008A604CB
:101FCE002108A7042208A8042308A9042408031939
:101FDE00F12FF22FF72FF61FF52FF62FF72FA91748
:101FEE002908F6002808F5002708F4002608F30053
:021FFE000800D9
:04400E00F22FFF3F4F
:00000001FF
