:020000040000FA
:100000000A128A11F22F00308A000408840A82073B
:100010000034533431343A340034533432343A34C3
:0A0020000034533433343A34003412
:100B0A00F00070088312031393000800831603137E
:100B1A00141C902D912D8B2D08000A128A118B25F9
:100B2A000A128A11831203131308080000300A12EA
:100B3A008A11BE250A128A1101300A128A11BE25AB
:100B4A000A128A110800F300831603138712731D11
:100B5A00AF2DB02DB42D720894008715B82D7008EA
:100B6A0072049400871173087104831203139400AA
:100B7A000800F30083120313081173080A128A117A
:100B8A00D8250A128A118312031388150B30F20032
:100B9A006230F100F10BCF2DF20BCF2D0000831242
:100BAA00031388110800F000701CDC2DDD2DE12DE7
:100BBA00831203130816E42D831203130812F01C80
:100BCA00E72DE82DEA2D8816EB2D8812701DEE2DE3
:100BDA00EF2DF12D0817F22D0813F01DF52DF62D26
:100BEA00F82D8817F92D88130800F700F501F6018A
:100BFA00112E7508770784000A128A1103200A1237
:100C0A008A110A128A1153260A128A110130F5072B
:100C1A000318F60A0030F6077508770784000A12E7
:100C2A008A1103200A128A11003A031D1D2E1E2E54
:100C3A00FE2D080083160317880189018316031302
:100C4A00850183120313850103308316031386007B
:100C5A00831203138601831603138701071683126F
:100C6A000313870183160313880183120313880170
:100C7A008316031389018312031389018B170B1738
:100C8A00FD01071587140714F001F101F201203064
:100C9A000A128A11A8250A128A110800F400740897
:100CAA000F39F1007108F2007408F039F100710887
:100CBA00F3008312031308157308F10004300310BC
:100CCA00F10CFF3E031D642E71080A128A11D82501
:100CDA000A128A118312031388151A30F100F10BD4
:100CEA00742E000083120313881172080A128A11E3
:100CFA00D8250A128A118312031388151A30F100B3
:100D0A00F10B852E00008312031388110800F700E7
:100D1A007703031D912E922EB52E74087F3EF5009F
:100D2A007508FA007A08F50004300310F50CFF3E46
:100D3A00031D9A2E7508F6007608F8007A080F390E
:100D4A00F5007508F90078080A128A11BE250A12F8
:100D5A008A1179080A128A11BE250A128A11DD2E11
:100D6A0002307706031DBA2EBB2EDD2E7408BF3E55
:100D7A00F5007508FA007A08F50004300310F50C3E
:100D8A00FF3E031DC32E7508F6007608F8007A08A0
:100D9A000F39F5007508F90078080A128A11BE257C
:100DAA000A128A1179080A128A11BE250A128A11B0
:100DBA00080000300A128A11D8250A128A11343022
:100DCA00F500F130F400F40BE82EF50BE82EED2EC9
:100DDA0003300A128A11BE250A128A110D30F50053
:100DEA00FB30F400F40BF72EF50BF72EFC2E033034
:100DFA000A128A11BE250A128A111D30F500913095
:100E0A00F400F40B062FF50B062F03300A128A1191
:100E1A00BE250A128A1102300A128A11BE250A1246
:100E2A008A1102300A128A11BE250A128A11083062
:100E3A000A128A11BE250A128A1100300A128A1170
:100E4A00BE250A128A110C300A128A11BE250A120C
:100E5A008A1100300A128A11BE250A128A11063036
:100E6A000A128A11BE250A128A1108000A128A1168
:100E7A001F260A128A110A128A11DE260A128A11FA
:100E8A000A128A119B250A128A11F401F40A013006
:100E9A000A128A118C260A128A1101300A128A1140
:100EAA00FA250A128A110830FB007B08F400013087
:100EBA000A128A118C260A128A1105300A128A111C
:100ECA00FA250A128A110E30FB007B08F400013061
:100EDA000A128A118C260A128A1109300A128A11F8
:100EEA00FA250A128A118312031307110330FC0030
:100EFA009730FB00FB0B7F2FFC0B7F2F842F831275
:100F0A00031306080A128A1185250A128A110A127F
:100F1A008A1192250A128A11FB007B088312031395
:100F2A00A6000330FC009730FB00FB0B9A2FFC0B4A
:100F3A009A2F9F2F83120313071587100330FC0083
:100F4A009730FB00FB0BA72FFC0BA72FAC2F013010
:100F5A000A128A1185250A128A110A128A11922501
:100F6A000A128A11FB007B0883120313A5000330BF
:100F7A00FC009730FB00FB0BC02FFC0BC02FC52FCA
:100F8A0083120313871407100330FC009730FB0009
:100F9A00FB0BCD2FFC0BCD2FD22F01300A128A1159
:100FAA0085250A128A110A128A1192250A128A11B1
:100FBA00FB007B0883120313A4000330FC00973064
:100FCA00FB00FB0BE62FFC0BE62FEB2F8312031320
:100FDA000714782F0A128A110028FD0183120313BD
:100FEA00A001A101A201A301A401A501A6018301F7
:060FFA000A128A113B2FD0
:04400E00F22FFF3F4F
:00000001FF
