:020000040000FA
:060000000A128A110C280F
:10000800FE00030EF2000A08F3000A128A114D28B6
:100018000A128A110F28F80183010A128A119A28F4
:10002800831603178801890120308316031385007E
:10003800831203138501033083160313860083128A
:1000480003138601183083160313870083120313E2
:10005800870183160313880183120313880183160B
:10006800031389018312031389018B170B178B154F
:100078000B1083160313161496148B170B17F40121
:10008800F501F60124300A128A1184200A128A1115
:1000980008000B1C502851287D2883120313061CC6
:1000A8005628572860280130F10071088807080889
:1000B800F1007108F8007C28861C632864286728EA
:1000C800013088025B288C1D6A286B287C280A125C
:1000D8008A11AB200A128A118312031389000808B7
:1000E8000A128A11C1200A128A11831203138C1171
:1000F8000B1073088A00720E8300FE0E7E0E090034
:10010800F700831603138712771D8B288C289028F5
:10011800760894008715942874087604940087114B
:100128007708750483120313940008000A128A11D1
:1001380014200A128A118312031308080A128A115A
:10014800BB200A128A119F280A128A110C280A1247
:100158008A11B4200A128A118312031313080800A3
:1001680083160313141CB928BA28B4280800F4000D
:1001780074088312031393000800F00070088312B8
:06018800031393000800C0
:04400E00F420FF3F5C
:00000001FF
