:020000040000FA
:060000000A128A110C280F
:10000800FE00030EF2000A08F3000A128A114C28B7
:100018000A128A110F28F80183010A128A119928F5
:100028008316031788018901831603138501831238
:100038000313850103308316031386008312031309
:10004800860183160313870183120313870183161E
:10005800031388018312031388018316031389018C
:100068008312031389018B170B178B150B1083163B
:100078000313161496148B170B178516F401F50144
:10008800F60124300A128A1183200A128A11080004
:100098000B1C4F2850287C2883120313061C552854
:1000A80056285F280130F100710888070808F10018
:1000B8007108F8007B28861C6228632866280130AE
:1000C80088025A288C1D69286A287B280A128A11F6
:1000D800AA200A128A1183120313890008080A1237
:1000E8008A11C0200A128A11831203138C110B1073
:1000F80073088A00720E8300FE0E7E0E0900F70058
:10010800831603138712771D8A288B288F28760871
:10011800940087159328740876049400871177084B
:10012800750483120313940008000A128A1114201C
:100138000A128A118312031308080A128A11BA20B4
:100148000A128A119E280A128A110C280A128A1188
:10015800B3200A128A1183120313130808008316A6
:100168000313141CB828B928B3280800F40074082D
:100178008312031393000800F0007008831203131E
:0401880093000800D8
:04400E00F420FF3F5C
:00000001FF
