:020000040000FA
:060000000A128A110C280F
:10000800FE00030EF2000A08F3000A128A11A02962
:100018000A128A110F28F701F801F90183010A125F
:100028008A11232983120313A0001F141F083F39C4
:1000380080389F0083160313051585159F161F1614
:100048000C17831203130C137408031D2C282D2876
:100058001A29831603139F13E42883160313051420
:10006800831603170814C330831203139F0522292C
:100078008316031385148316031788148312031336
:100088001F08C33904389F00222983160313051556
:10009800831603170815831203131F08C33908387A
:1000A8009F002229831603138515831603178815C5
:1000B800831203131F08C3390C389F0022298316A3
:1000C80003138516831603170816831203131F08D4
:1000D800C33910389F002229831603130914831685
:1000E80003178816831203131F08C33914389F0097
:1000F80022298316031389148316031708178312FA
:1001080003131F08C33918389F00831603130915F2
:10011800831603178817831203131F08C3391C3863
:100128009F00222983160313061583160317091443
:10013800831203131F08C33920389F00222983160E
:1001480003138615831603178914831203131F08D4
:10015800C33924389F002229831603138614831673
:1001680003170915831203131F08C33928389F0082
:10017800222983160313061683160317891583127B
:1001880003131F08C3392C389F0022298316031331
:100198000614831603170916831203131F08C3399D
:1001A80030389F00222983160313861683160317F7
:1001B8008916831203131F08C33934389F00222974
:1001C800831203132008F500F6017608003A031994
:1001D800EE2822297508003A03193128013A031933
:1001E8003C28033A03194928013A03195628073AC3
:1001F80003196328013A03197028033A03197D2863
:10020800013A031989280F3A03199628013A031964
:10021800A328033A0319B028013A0319BD28073A5D
:100228000319CA28013A0319D72822297403031D80
:100238001E291F292229831603139F1708000A1253
:100248008A1169210A128A11F40100300A128A11EE
:1002580016200A128A11831203139F14861106129C
:10026800861277080A128A11E0210A128A1171305F
:10027800831203130802031C4229432947298615C0
:100288000612861235296230080203184C294E29B5
:1002980001304F290030A10071300802031C552994
:1002A80057290130582900302105003803195D29E4
:1002B8005E296229861106168612352986110612CC
:1002C800861635290A128A110C2883160317880105
:1002D80089018316031385018312031385010330F3
:1002E80083160313860083120313860183160313F0
:1002F800870183120313870183160313880183126E
:1003080003138801831603138901831203138901D8
:100318008B170B17F901F701F8018B170B178316C9
:1003280003138516F401F501F60124300A128A1127
:10033800C2210A128A110800831203130C1FA5296F
:10034800A629BB291E08F000F1017008F700710802
:10035800F800770888000C13E430F000B329B429BA
:10036800F00BB229B7290000831203139F147308F6
:100378008A00720E8300FE0E7E0E0900831203139C
:10038800A00083160313871283120313201DCD299F
:10039800CE29D42976088316031394008715DA2901
:1003A80074087604831603139400871183120313C9
:1003B8002008750494000800F400740883120313DD
:0403C8009300080096
:04400E00F22FFF3F4F
:00000001FF
