:020000040000FA
:060000000A128A110C280F
:10000800FE00030EF2000A08F3000A128A11812981
:100018000A128A110F28F801F90183010A128A11BC
:100028000629F700831203131F141F083F3980386D
:100038009F0083160313051585159F161F160C17A9
:10004800831203130C137408031D2B282C28FD2876
:10005800831603139F13C92805148316031708145E
:10006800C330831203139F050529851483160317CC
:100078008814831203131F08C33904389F00052905
:100088000515831603170815831203131F08C339B0
:1000980008389F00052985158316031788158312CC
:1000A80003131F08C3390C389F00052985168316CA
:1000B80003170816831203131F08C33910389F004B
:1000C80005290914831603178816831203131F08BA
:1000D800C33914389F000529891483160317081794
:1000E800831203131F08C33918389F00831603139C
:1000F8000915831603178817831203131F08C339BA
:100108001C389F0005290615831603170914831246
:1001180003131F08C33920389F0005298615831645
:1001280003178914831203131F08C33924389F0047
:1001380005298614831603170915831203131F084C
:10014800C33928389F000529061683160317891511
:10015800831203131F08C3392C389F00052906147E
:10016800831603170916831203131F08C33930387F
:100178009F00052986168316031789168312031311
:100188001F08C33934389F0005297708F500F601A0
:100198007608003A0319D12805297508003A031989
:1001A8003028013A03193928033A03194428013A37
:1001B80003194F28073A03195A28013A03196528E1
:1001C800033A03197028013A03197A280F3A0319D8
:1001D8008728013A03199228033A03199D28013AFE
:1001E8000319A828073A0319B328013A0319BE28A6
:1001F80005297403031D0129022905298316031300
:100208009F1708000A128A114C210A128A11F40158
:1002180000300A128A1115200A128A118312031358
:100228009F1486110612861278080A128A11B921BB
:100238000A128A117130831203130802031C25293C
:1002480026292A29861506128612182962300802DC
:1002580003182F293129013032290030A0007130CC
:100268000802031C38293A2901303B2900302005AF
:100278000038031940294129452986110616861296
:10028800182986110612861618290A128A110C28AE
:10029800831603178801890120308316031385000C
:1002A8008312031385010330831603138600831218
:1002B8000313860118308316031387008312031370
:1002C8008701831603138801831203138801831699
:1002D800031389018312031389018B170B17F80184
:1002E800F9018B170B17F401F501F60124300A12F6
:1002F8008A11A3210A128A110800831203130C1F02
:10030800862987299C291E08F000F1017008F80049
:100318007108F900780888000C13E430F00094297B
:100328009529F00B932998290000831203139F1431
:1003380073088A00720E8300FE0E7E0E0900F70015
:10034800831603138712771DAA29AB29AF297608CC
:1003580094008715B32974087604940087117708E8
:1003680075048312031394000800F40074088312C0
:06037800031393000800CE
:04400E00F22FFF3F4F
:00000001FF
