:020000040000FA
:060000000A128A110C280F
:10000800FE00030EF1000A08F2000A128A117F2985
:100018000A128A110F28F801F90183010A128A11BC
:100028000429F600831203131F141F083F39803870
:100038009F00831603139F121F120C1783120313BA
:100048000C137308031D29282A28FB288316031379
:100058009F13C7280514831603170814C330831287
:1000680003139F0503298514831603178814831225
:1000780003131F08C33904389F0003290515831685
:1000880003170815831203131F08C33908389F0084
:1000980003298515831603178815831203131F0870
:1000A800C3390C389F0003298516831603170816D1
:1000B800831203131F08C33910389F00032909143A
:1000C800831603178816831203131F08C3391438BD
:1000D8009F00032989148316031708178312031333
:1000E8001F08C33918389F00831603130915831690
:1000F80003178817831203131F08C3391C389F007E
:1001080003290615831603170914831203131F08FE
:10011800C33920389F0003298615831603178914CD
:10012800831203131F08C33924389F000329861438
:10013800831603170915831203131F08C3392838B8
:100148009F000329061683160317891583120313C4
:100158001F08C3392C389F00032906148316031778
:100168000916831203131F08C33930389F00032967
:100178008616831603178916831203131F08C339BB
:1001880034389F0003297608F400F5017508003A11
:100198000319CF2803297408003A03192E28013AB5
:1001A80003193728033A03194228013A03194D283D
:1001B800073A03195828013A03196328033A03191F
:1001C8006E28013A031978280F3A03198528013A4D
:1001D80003199028033A03199B28013A0319A62802
:1001E800073A0319B128013A0319BC2803297303F4
:1001F800031DFF2800290329831603139F170800EE
:100208000A128A114A210A128A11F30100300A12CD
:100218008A1115200A128A11831203139F1486115A
:100228000612861208080A128A11B0210A128A11C7
:100238001330831203130802031C232924292829B5
:1002480086150612861216290C30080203182D2965
:100258002F29013030290030F70013300802031C21
:100268003629382901303929003077050038031933
:100278003E293F294329861106168612162986111A
:100288000612861616290A128A110C2883160317D5
:1002980088018901831603138501831203138501DD
:1002A8000330831603138600831203138601831613
:1002B800031387018312031387018316031388012D
:1002C800831203138801831603138901831203130E
:1002D80089018B170B17F9018B170B17831603135B
:1002E8008516F301F401F50124300A128A119A21C6
:1002F8000A128A110800831203130C1F8429852906
:1003080093291E0888000C13E430F0008B298C29EF
:10031800F00B8A298F290000831203139F14720897
:100328008A00710E8300FE0E7E0E0900F600831609
:1003380003138712761DA129A229A62975089400FE
:100348008715AA2973087504940087117608740420
:100358008312031394000800F30073088312031335
:0403680093000800F6
:04400E00F22FFF3F4F
:00000001FF
